:100000000080002079220000A5220000A522000027
:10001000A5220000A5220000A5220000A5220000C4
:10002000A5220000A5220000A5220000A5220000B4
:10003000A5220000A5220000A5220000A5220000A4
:10004000A5220000A5220000A5220000A522000094
:10005000A5220000A5220000A5220000A522000084
:10006000A5220000A5220000A5220000A522000074
:10007000A5220000A5220000A5220000A522000064
:10008000A5220000A5220000A5220000A522000054
:10009000A5220000A5220000A5220000A522000044
:1000A000A5220000A5220000A5220000A522000034
:1000B000A5220000A5220000A5220000A522000024
:1000C000A5220000A522000010B5054C237833B905
:1000D000044B13B10448AFF300800123237010BD1B
:1000E000840000200000000034350000084B10B5EB
:1000F0001BB108480849AFF300800848036803B9FA
:1001000010BD074B002BFBD0BDE81040184700BFC7
:10011000000000003435000088000020800000202E
:1001200000000000154B002B08BF134B9D46A3F5A4
:10013000803A00218B460F461348144A121A03F0E6
:100140007AF90F4B002B00D098470E4B002B00D0B4
:1001500098470020002104000D000D48002802D01F
:100160000C48AFF3008003F035F92000290000F0BF
:10017000F7F903F01BF900BF000008000080002021
:10018000000000000000000084000020AC000020FF
:10019000000000000000000080B400AF044BDB6CE6
:1001A0001B0EDBB21846BD465DF8047B704700BFEE
:1001B000B081E00F80B487B000AFF860B9607A60BA
:1001C000FB6803F10473DA00BB6813449B007B6196
:1001D0007B697A681A601C37BD465DF8047B7047FE
:1001E00080B586B000AF4FF050133B610023FB6039
:1001F000FFF7D2FF0346FB723B46184602F002F8B7
:10020000FB7A8E2B22D81F4BD3F8B0307B601D4A6F
:100210007B6843F00403C2F8B03000237B610EE03A
:1002200019483A69FB6842EA03017A6913465B00A0
:1002300013441B01034419607B6901337B617B69B3
:10024000052BEDD90F4A7B68C2F8B030FB7A8F2BB3
:1002500007D80C4A0B4BDB6A23F07F0343F02003E3
:10026000D3627B78012B05D1084A084B1B6843F009
:100270000403136006480D210022FFF79BFF183787
:10028000BD4680BD00400E4000A0004064310E40DD
:1002900054300E4080B500AFFFF7A2FF00F006F823
:1002A00000F04CF800F088F880BD00BF90B589B030
:1002B00000AF214B07F11004186859689A68DB6891
:1002C0000FC400233B7401237B744FF4E1637B82F2
:1002D0000F23BB820A23FB82C8233B832023BB76E8
:1002E000A023BB8307F11003184601F063FC002331
:1002F0003B7300233B7307F10C03184601F040F9F0
:1003000000233B7100237B710023BB710023FB7131
:1003100000233B7200237B7100233B710023BB71E0
:100320000023FB7100233B723B1D184601F032F99C
:100330002437BD4690BD00BF0C350000B0B586B077
:1003400000AF1A4B3C1D1D4628686968AA68EB6817
:100350000FC42B8A23803B1D184600F077FE112026
:10036000052100F043FD1248012100F045FB114A30
:10037000104B1B6823F00F0313600E4A0D4B1B68D4
:1003800023F4F07313600B4A0A4BD3F8703123F057
:100390000103C2F87031074A064BD3F8703123F0DD
:1003A0000203C2F870311837BD46B0BD1C350000DD
:1003B0000025080000400E4080B500AF0520042154
:1003C0000422002301F098FE0520052105220023C8
:1003D00001F092FE052006210122012301F08CFE8E
:1003E000052007210122012301F086FE80BD00BF08
:1003F00080B485B000AF786039607B6803F1047326
:10040000DA003B6813449B00FB60FB681B681846DE
:100410001437BD465DF8047B704700BF80B485B0DB
:1004200000AF786039607B6803F1C063FB60FB68F4
:100430003A681A601437BD465DF8047B704700BF08
:1004400080B485B000AF786039607B6803F1806369
:10045000FB60FB683A681A601437BD465DF8047BA0
:10046000704700BF80B582B000AF03463960FB71B2
:10047000FB791A4613465B0013441B011C3303F13E
:10048000804303F520433A6818461146FFF7B0FF52
:10049000034618460837BD4680BD00BF80B582B010
:1004A00000AF03463960FB71FB791A4613465B00C7
:1004B00013441B010C3303F1804303F520433A68D6
:1004C000114601228A4018461146FFF7B9FF083746
:1004D000BD4680BD80B582B000AF03463960FB7178
:1004E000FB791A4613465B0013441B010C3303F1DE
:1004F000804303F520433A68114601228A4018469A
:100500001146FFF78BFF0837BD4680BD80B483B02E
:1005100000AF03463960FB71094AFB7919463B6815
:1005200018460123834018460B465B000B441B0111
:100530001344183318600C37BD465DF8047B7047D0
:1005400000A0004080B500AF05200621FFF78AFF1C
:100550000346002B14BF01230023DBB2184680BDE5
:1005600080B582B000AFFFF795FE05200421FFF7AC
:10057000CDFF00237B600EE0FFF7E4FF0346002B76
:1005800003D0012000F00EF802E0002000F00AF88D
:100590007B6801337B607B68014A9342ECD9E4E7D6
:1005A0009F86010080B582B000AF0346FB71FB79E6
:1005B000002B04D005200521FFF770FF03E0052084
:1005C0000521FFF787FF0837BD4680BD80B487B09F
:1005D00000AFF860B9607A60FB6803F10473DA0079
:1005E000BB6813449B007B617B697A681A601C3787
:1005F000BD465DF8047B704780B485B000AF78607D
:1006000039607B6803F10473DA003B6813449B0094
:10061000FB60FB681B6818461437BD465DF8047B19
:10062000704700BF80B483B000AF78607B68012260
:1006300002FA03F318460C37BD465DF8047B704799
:1006400080B584B000AF78600123FB607B68124AFC
:10065000934204D80023FB600023BB6008E07B6862
:100660000E4A934202D80123BB6001E00223BB6023
:100670000B481021FA68FFF7A9FF0949084BD3F886
:10068000003123F08072BB681B061343C1F80031B0
:100690001037BD4680BD00BF0048E8010090D00380
:1006A00000400E4080B483B000AF054B1B687B60F8
:1006B0007B6818460C37BD465DF8047B704700BF69
:1006C0000000002080B582B000AF01F019FE786014
:1006D000064BD3F8003103F4F8531B0A01337A6850
:1006E00002FB03F318460837BD4680BD00400E40AC
:1006F00080B582B000AF0D4800F0B0FA0346FB7041
:10070000FB78072B05D0092B07D101F0F9FD7860A4
:1007100006E0FFF7C7FF786002E000237B6000BFC0
:100720007B6818460837BD4680BD00BF06000C0038
:1007300080B584B000AF78607B68002B1CD11B486B
:1007400000F08CFA0346FB7200BFFB7A013B072BDB
:1007500023D801A252F823F07D0700009B07000078
:100760009B0700008B0700009B0700009B07000011
:100770008307000093070000002312E00023FB60C2
:100780000EE0FFF78FFFF8600AE001F0F1FDF8607E
:1007900006E0FFF797FFF86002E00023FB6000BF70
:1007A000FB6818461037BD4680BD00BF98002E007C
:1007B00080B485B000AF78603960194B1B6C002B9A
:1007C00014BF01230023FB72154B41F671321A64EA
:1007D000134B5B6803F04073FB607B68114A9342E4
:1007E00002D80023FB6005E07B680F4A934201D8E2
:1007F0000123FB60FB681B06FB600949084B5B6833
:1008000023F04072FB6813434B60FB7A002B02D04D
:10081000034B00221A641437BD465DF8047B704711
:1008200000000E4080BA8C01005A620280B500AF11
:1008300001F05CFD034618460021FFF7B9FF80BDBB
:1008400080B582B000AF7860396078683968FFF7AA
:10085000AFFF0837BD4680BD80B487B000AF786079
:100860000F237B617B6803333B617B69FB60FA6824
:100870003B69934228BF1346BB60BB681B07BB6044
:10088000BB6818461C37BD465DF8047B704700BF47
:1008900080B400AF044B5B6A03F030031846BD46DA
:1008A0005DF8047B704700BF00400E4080B483B009
:1008B00000AF78600649064B5B6A23F030027B6824
:1008C00013434B620C37BD465DF8047B704700BF95
:1008D00000400E4090B585B000AF78600023BB604B
:1008E0007B68334A934206D0324A934203D0324A5D
:1008F000934200D000E000BF786800F0AFF90346F3
:10090000FB607B682A4A93420DD02A4A934211D059
:10091000294A934200D014E0284BD3F8803003F0EA
:100920000703FB600DE0254BD3F8843003F0070389
:10093000FB6006E0214BD3F8883003F00703FB602F
:1009400000BFFB68042B2ED801A252F823F000BF91
:10095000A1090000650900006D0900007D09000083
:100960007509000001F03EFDB8601CE001F04EFD8D
:10097000B86018E001F040FDB86014E001F094FCAC
:1009800004460E4BD3F8003103F080731B0E013385
:100990001846FFF747FE0346B4FBF3F3BB6002E0E3
:1009A0000023BB6000BFBB6818461437BD4690BD2E
:1009B00003001C000500200002001A0000400E4049
:1009C00080B483B000AF78600A4BD3F8443103F0B1
:1009D0000103002B00D007E000BF064BD3F84021F5
:1009E0007B681340002BF8D10C37BD465DF8047BC3
:1009F000704700BF00400E4080B586B000AF786001
:100A00000B46FB7000233B617B681B0A03F00F035E
:100A1000013B092B44D801A252F823F0450A0000FB
:100A2000510A0000A10A0000A10A00004B0A0000C0
:100A3000570A0000610A0000A10A00006B0A0000CA
:100A4000770A0000184B7B6118E0184B7B6115E0BA
:100A5000174B7B6112E0174B7B6101233B610DE07B
:100A6000154B7B6110233B6108E0144B7B614FF415
:100A700080333B6102E0124B7B6100BF7B681B0B44
:100A800003F01F03FB603B69002B02D03869FFF7BE
:100A900097FFFB787869F9681A46FFF797FD00E041
:100AA00000BF1837BD4680BD00400E40B0400E402C
:100AB000C0400E40E0400E40E8400E40F0400E4086
:100AC00050410E4080B584B000AF78607B6803F47D
:100AD0007813B3F5602F00F0A580B3F5602F16D81A
:100AE000B3F5802F31D0B3F5802F05D8002B28D057
:100AF000B3F5003F3CD09EE0B3F5202F47D0B3F5CF
:100B0000402F00F08B80B3F5002F2DD093E0B3F58C
:100B1000D01F4BD0B3F5D01F09D8B3F5A01F4FD0CD
:100B2000B3F5B01F63D0B3F5901F44D083E0B3F5A5
:100B3000001F6ED0B3F5381F78D0B3F5E01F51D049
:100B400079E001F0DDFBF86078E001F0D9FBF860B6
:100B50003D4BD3F80C213D4B13401B0A0133FA687F
:100B6000B2FBF3F3FB6069E001F0CAFBF86065E0FB
:100B700001F0C6FBF860344BD3F80821334B134027
:100B80001B0A0133FA68B2FBF3F3FB6056E001F095
:100B9000B7FBF8602C4BD3F8143103F4F8531B0A5D
:100BA0000133FA68B2FBF3F3FB6047E02848FFF734
:100BB00091FEF86042E02748FFF78CFEF8603DE0C8
:100BC0002348FFF787FEF8601F4BD3F8203103F06E
:100BD0000F031846FFF726FD0246FB68B3FBF2F34E
:100BE000FB602BE01C48FFF775FEF86026E01A4812
:100BF000FFF770FEF860144BD3F8283103F00303BD
:100C00001846FFF70FFD0246FB68B3FBF2F3FB60EB
:100C100014E01048FFF75EFEF8600FE0FFF768FD94
:100C2000F8600BE0FFF73EFDF86007E00020FFF7FB
:100C30007FFDF86002E00023FB6000BFFB68184600
:100C40001037BD4680BD00BF00400E4000FF0100D0
:100C500002001A000500200003001C0080B485B0CB
:100C600000AF78600123FB737B6803F00F03BB6068
:100C7000BB68013B072B00F2AD8001A252F823F0C4
:100C8000A10C0000D30C0000030D0000D50D0000E6
:100C9000490D0000790D0000D50D0000990D0000F0
:100CA000514BD3F8943003F00703032B07D0042BE8
:100CB00002D0022B06D008E00223FB7308E00323D6
:100CC000FB7305E00423FB7302E00523FB7300BF05
:100CD00083E0454BD3F8803003F00703022B06D0A6
:100CE000042B07D0012B08D10323FB7308E0022358
:100CF000FB7305E00A23FB7302E00123FB7300BFD3
:100D00006BE0394BD3F8843003F00703013B032B2E
:100D100016D801A252F823F0290D00002F0D000073
:100D20003B0D0000350D00000323FB730BE0022395
:100D3000FB7308E00A23FB7305E00623FB7302E064
:100D40000123FB7300BF48E0274BD3F8883003F042
:100D50000703022B06D0042B07D0012B08D1032355
:100D6000FB7308E00223FB7305E00A23FB7302E038
:100D70000123FB7300BF30E01B4B1B6F03F001032B
:100D8000002B05D0012B00D027E00923FB7302E0E4
:100D90000723FB7300BF20E0134BD3F85C3103F053
:100DA0003003102B0CD0102B02D8002B05D014E0F0
:100DB000202B08D0302B09D00FE00123FB7308E073
:100DC0000723FB7305E00423FB7302E00823FB7396
:100DD00000BF02E00023FB7300BFFB7B1846143703
:100DE000BD465DF8047B704700400E4080B588B07A
:100DF00000AF78600B46FB700323FB610323FB7697
:100E000000233B617B6803F00F03FB60FB68013B41
:100E1000072B00F2038101A252F823F03D0E0000DF
:100E2000D90E0000F50E00001D100000E70E0000B6
:100E30008D0F00001D100000AB0F0000FB78023B7F
:100E4000082B00F2ED8001A252F823F0710E000091
:100E50007B0E0000850E0000950E000021100000A2
:100E600021100000211000002110000021100000BE
:100E70000423FB610023FB7614E00323FB610123C1
:100E8000FB760FE00223FB610223FB766848FFF745
:100E9000D7FB07E00123FB610323FB766448FFF7E0
:100EA000CFFB00BFFB7E18460121012200F048F96C
:100EB000FFF7BCFC5F4AFB6953675F48FFF702FE20
:100EC00003461846FFF7BCFB01F0EEF9B860B868BE
:100ED0000021FFF7B5FCA8E03B69002B01D03B697E
:100EE00000E0564B3B613B69002B01D03B6900E0C1
:100EF000534B3B613B69002B01D03B6900E0514BF8
:100F00003B61FB78013B092B00F28C8001A252F877
:100F100023F000BF3D0F0000430F0000530F0000FF
:100F20002510000025100000630F000025100000B0
:100F300025100000251000007F0F000000237B61BA
:100F400020E000200121012200F0FAF802237B6159
:100F500018E001200121012200F0F2F801237B6159
:100F600010E001F0A1F903461846FFF769FB364887
:100F700000210122FFF72AFB03237B6102E0042307
:100F80007B6100BF3B697A691A604EE0FB78072BF2
:100F900002D0092B04D048E0264B00221A6703E058
:100FA000244B01221A6700BF3FE0FB78013B072B6F
:100FB0003AD801A252F823F0D90F000029100000FE
:100FC00029100000EF0F0000291000002910000078
:100FD000DF0F0000FF0F000000237B6112E0042000
:100FE0000121012200F0ACF801237B610AE002201C
:100FF0000121012200F0A4F802237B6102E0032317
:101000007B6100BF0B490B4BD3F85C3123F03002FE
:101010007B691B011343C1F85C3106E000BF04E0AB
:1010200000BF02E000BF00E000BF2037BD4680BD2A
:101030000148E80100400E400005080080400E40D5
:1010400088400E4084400E40B0400E40B0B584B0A1
:1010500000AF78601120FFF701FE0220002101227D
:1010600000F06EF87B685B7883F00103DBB2002B45
:101070000ED07B689B7883F00103DBB2002B07D096
:101080007B68DB7883F00103DBB2002B00D000BF6C
:101090000023FB607B681B7C022B01D10123FB60DA
:1010A0002549254B5B6A23F00102FB6813434B6221
:1010B0007B681B78214808211A46FFF787FA1E49EA
:1010C0001D4B9B6A23F007037A68D27A13438B6225
:1010D00019497B689B88DB027A68527A1343CB629A
:1010E000154D154B1B6B03F07F637A68D288D202D3
:1010F00013437A68927A13437A68127AD20143EAE8
:1011000002047B681B7A1846FFF7A6FB03462343BD
:101110002B6309497B685B7B1A037B689B7B1B0104
:1011200013437A68D27B1A437B681B7B1B041343EF
:101130004B631037BD46B0BD00400E4024400E400A
:1011400080B588B000AF0346FB710B46BB711346F8
:101150007B71FB79042B00F2A58001A252F823F0E9
:10116000BD110000AB1100008711000075110000D7
:101170009911000001237B6102233B610123FB6184
:101180000023BB6125E004237B6108233B6103232B
:10119000FB610223BB611CE010237B6120233B61C8
:1011A0000523FB610423BB6113E040237B618023A3
:1011B0003B610723FB610623BB610AE04FF48073A8
:1011C0007B614FF400733B610923FB610823BB6122
:1011D00000BFBB79002B59D00023FB73FB79022B96
:1011E0000FD1FFF755FB0346002B0AD10123FB73F8
:1011F0002E4B5B6A03F00103002B02D00120FFF7A6
:1012000055FB2A4A7B69136600BF2948B969FFF775
:10121000F3F90346002BF8D07B79002B35D000BFC3
:101220002348F969FFF7E8F90346002BF8D0FB796A
:10123000022B2AD1FB7B002B27D01C4B5B6A03F0CF
:101240000103002B05D002202021012200F036F9F5
:1012500003E00220002100F0E7F8022000F02AF865
:10126000B860022000210122FFF76AFF0220B9685E
:1012700000F05AF80D4A7B69136600BF0C48F96903
:10128000FFF7BAF90346002BF8D00CE0074A3B6998
:10129000136600BF0648B969FFF7AEF90346002B95
:1012A000F8D100E000BF2037BD4680BD00400E40B1
:1012B00090400E4080B485B000AF0346FB71FB79CF
:1012C000013B032B23D801A252F823F0DD120000CA
:1012D00001130000E9120000F5120000114B1B6A17
:1012E000C3F30803FB6015E00E4B1B6903F07F039B
:1012F000FB600FE00B4B9B6903F07F03FB6009E091
:10130000084BD3F89C30C3F30A03FB6002E00023D0
:10131000FB6000BFFB6818461437BD465DF8047BD0
:10132000704700BF00400E4080B584B000AF034658
:101330003960FB71FB79013B032B6AD801A252F89B
:1013400023F000BF55130000D713000083130000E3
:10135000AD1300003B68C3F308033B6000BF2F4898
:101360001A21FFF749F90346002BF8D12C492C4BE1
:101370001B6A23F4FF7323F001033A6813430B62E3
:1013800048E03B6803F07F033B6000BF234818211F
:10139000FFF732F90346002BF8D12149204B1B6996
:1013A00023F07F023B6813430B6133E03B6803F09B
:1013B0007F033B6000BF19481921FFF71DF9034661
:1013C000002BF8D11649164B9B6923F07F023B682E
:1013D00013438B611EE0124BD3F89030104A104B30
:1013E0005B6A23F0300343F0100353623B6803F45D
:1013F000F063DB091846FFF72FFAF8600849084B3D
:101400001A6B084B13403A681A43FB6813430B638B
:1014100000E000BF1037BD4680BD00BF40410E4018
:1014200000400E4000F8FF0F80B584B000AF0346C7
:101430000A46FB711346BB71FFF72AFA0346002BDD
:1014400003D14FF44003FB6015E0BB79202B04D09F
:10145000302B0AD0002B04D00BE04FF40003FB60CC
:1014600009E04FF44003FB6005E04FF44003FB60EC
:1014700001E0104BFB6000BF0F4BD3F89020FB68DE
:101480001A40FB689A42F7D1FB6803F48003002BF3
:101490000AD0094BD3F8A03003F48063002B14BFAB
:1014A00001230023DBB200E0012318461037BD46BC
:1014B00080BD00BFFF03E10700400E4080B582B051
:1014C00000AF0346FB710B46BB7113467B71FB7982
:1014D000022B16D1BB79002B07D00C4B4FF4806246
:1014E000C3F8A820094ABB7953667B79002B07D043
:1014F000FA79BB7910461946FFF796FF034601E0DB
:1015000000BF012318460837BD4680BD00400E408D
:1015100080B487B000AFF860B9607A60FB6803F10F
:101520000473DA00BB6813449B007B617B697A68B3
:101530001A601C37BD465DF8047B704780B485B0E7
:1015400000AF786039607B6803F10473DA003B68B0
:1015500013449B00FB60FB681B6818461437BD46AC
:101560005DF8047B704700BF80B400AF034B1B6D78
:10157000DBB21846BD465DF8047B7047B081E00FD2
:1015800080B483B000AF78600C37BD465DF8047B53
:10159000704700BF80B485B000AF7860194B9B697D
:1015A000FB60FB6823F03F03FB607B681B78002B2C
:1015B00001D0042200E000227B685B78002B01D080
:1015C000022300E000231A437B689B78002B01D0A4
:1015D000082300E000231A437B68DB78002B01D04E
:1015E000012300E0002313437A6812791343FA6859
:1015F0001343FB60034AFB6893611437BD465DF8F3
:10160000047B704700300E4080B489B000AF284B97
:10161000FB61284BBB61284B7B61284B3B61284B0E
:10162000FB60284BBB60284BD3F86C31B3F1FF3F14
:1016300037D0FB695B687B60FB691B683B603B687C
:101640007A681A60BB695B687B60BB691B683B603A
:101650003B687A681A607B695B687B607B691B68A2
:101660003B603B687A681A603B695B687B603B69FA
:101670001B683B603B687A681A60FB685B687B604C
:10168000FB681B683B603B687A681A60BB685B68F4
:101690007B60BB681B683B603B687A681A6001230B
:1016A00000E0002318462437BD465DF8047B7047F0
:1016B0003880E00F4080E00F4880E00F5080E00F5E
:1016C0005880E00F6080E00FB081E00F80B584B0FB
:1016D00000AF244A234BDB6E43F08073D36622486D
:1016E0000021FFF72BFFF860FB68002B03D00420DC
:1016F00000F05CFC02E0002000F058FC194A194B95
:101700001B6E23F0C0431366164A164BDB6C43F086
:101710000603D3643B1D184600F074FD7B79012B52
:101720001DD13B79022B1AD8104B1B78002B16D1F8
:101730000F4A0F4B1B6843F001031360094B1B6EEC
:10174000BB60BA680B4B1340BB60BA680A4B1343CB
:10175000BB60044ABB681366044B01221A70103741
:10176000BD4680BD00300E404C300E40A000002031
:1017700044300E40000F0EF0B4C0400B80B48BB06C
:1017800000AF01237B627B6A1B053B62334BDB6C42
:1017900003F470631B0AFB61314B1B8803F12802C1
:1017A0002F4B1B882833D90F0B445B101344194669
:1017B000FB695A1C13469B001344B1FBF3F3013B36
:1017C000BB61BB697B6107233B613A697B699342DB
:1017D00028BF1346BB61BB691B06BB611F481F4B7B
:1017E000DB6C23F0EE62B9693B6A0B431343C364BD
:1017F0001C4B1B881BB2002B2BDB1A4B1B88FB815D
:10180000FB8903F12802FB892833D90F0B445B10B5
:1018100013441946FB6901335A00FB6901335B0825
:101820001344B1FBF3F3BB60BB687B6007233B60F1
:101830003A687B68934228BF1346BB60BB681B01B4
:10184000BB600649054B1B6D23F07002BB68134358
:101850000B652C37BD465DF8047B704700300E40A9
:10186000A2000020A600002080B483B000AF786002
:101870000B467B807B689AB2044B1A80044A7B88B3
:1018800013800C37BD465DF8047B7047A200002032
:10189000A600002080B483B000AF0346FB71FB7943
:1018A000002B02D0012B04D007E0064B064A9A65B4
:1018B00003E0044B054A9A6500BF0C37BD465DF84E
:1018C000047B704700300E4077402057372110B717
:1018D00080B584B000AF0346FB710B46BB71134665
:1018E0007B71FFF741FE0346FB72FB7A032B10D896
:1018F000294BD3F87C31FB60FB79002B05D0FB68CA
:1019000003F47F431B0AFB602CE0FB68DBB2FB6047
:1019100028E0214BD3F88031FB60BB79032B1FD823
:1019200001A252F823F000BF39190000411900004C
:101930004D19000059190000FB68DBB2FB6011E093
:10194000FB6803F47F431B0AFB600BE0FB6803F4B6
:101950007F031B0CFB6005E0FB681B0EFB6001E0D6
:10196000002315E07B79002B11D1FB681B03FB6082
:10197000FB6823F47043002B01D0002308E00749E3
:10198000064BDB6E23F47042FB681343CB660123E6
:1019900018461037BD4680BDB081E00F00300E40C4
:1019A00080B489B000AFF860B96011461A460B46A2
:1019B000FB711346BB710023FB610023BB61BB7944
:1019C0001A02FB7913437B617B6940F20112934257
:1019D0002BD0B3F5817F07D2012B19D0012B4BD32C
:1019E000B3F5807F55D07BE040F20122934229D0AD
:1019F00040F20122934203D8B3F5007F56D06FE046
:101A0000B3F5407F5FD040F20132934227D067E0C8
:101A1000394BD3F87431FB61FB6903F47F431B0A34
:101A2000BB61FB69DBB2FB615AE0334BD3F8743125
:101A3000FB61FB691B0EBB61FB6903F47F031B0C9D
:101A4000FB614DE02C4BD3F87831FB61FB6903F46B
:101A50007F431B0ABB61FB69DBB2FB6140E0264BA5
:101A6000D3F87831FB61FB691B0EBB61FB6903F4A2
:101A70007F031B0CFB6133E01F4BD3F86C31FB6120
:101A8000FB6903F47F431B0ABB61FB69DBB2FB61AB
:101A900026E0194BD3F86C31FB61FB691B0EBB616F
:101AA000FB6903F47F031B0CFB6119E0124BD3F8B5
:101AB0007031FB61FB6903F47F431B0ABB61FB6967
:101AC000DBB2FB610CE00C4BD3F87031FB61FB69BE
:101AD0001B0EBB61FB6903F47F031B0CFB6100BFA2
:101AE000FB68FA691A60BB68BA691A602437BD4698
:101AF0005DF8047B704700BFB081E00F80B584B013
:101B000000AF0346FB7100BF274B9B6F03F001033F
:101B1000002BF9D1244B1B6C03F00303FB60FB6823
:101B2000002B04D021480D210122FFF7F1FCFB68B6
:101B3000DBB2FA799A4209D1FB79002B05D11B4817
:101B40000D210022FFF7E4FC2AE029E0FB68002BCE
:101B500005D1FB79012B02D1154B02221A7000BF6F
:101B6000114B9B6F03F00103002BF9D10E490E4B73
:101B70001B6C23F00302FB7913430B6400BF0A4B79
:101B80009B6F03F00103002BF9D1FB79002B14BFED
:101B900001230023DBB205480D211A46FFF7B8FCEC
:101BA0001037BD4680BD00BF00300E4054300E409F
:101BB000A000002080B584B000AF78603F4B0222C7
:101BC0009A633E4B9B6B03F00F03022B01D0002363
:101BD0006FE0FFF719FD7B685B78012B7B68DB8882
:101BE0004A2B02D80023FB6015E07B68DB88B3F545
:101BF000FA7F03D24FF08053FB600CE07B68DB88F8
:101C000040F6C312934203D84FF00053FB6002E04A
:101C10004FF04053FB602948284BDB6C23F04053C6
:101C200023F001037A68928912B2002A01DB0121B4
:101C300000E00021FA680A431343C364FFF746FD3E
:101C40007B681B891A467B689B891BB21046194624
:101C5000FFF70AFE7B689A88194B1A807B689B887D
:101C6000184600F037F97B689B7B1846FFF712FE99
:101C70007B685B8818460121012200F025F80346A5
:101C800083F00103DBB2002B01D0002311E07B685D
:101C90009B7A002B14BF01230023DBB209480521E6
:101CA0001A46FFF735FC7B685B781846FFF726FF7E
:101CB000012318461037BD4680BD00BF00300E40DE
:101CC000A40000203C300E4080B590B000AF78609A
:101CD0000B46FB701346BB700023FB6300237B6342
:101CE00000233B6200237B620023BB610023FB6176
:101CF00000233B6100237B610023BB817B68B3F53C
:101D0000E16F06D37B6840F6B832934201D80123D5
:101D100000E0002387F8333097F8333003F00103F5
:101D200087F8333097F8333083F00103DBB2002BB0
:101D300001D00023C6E07B68B3F5E16F8CBF0123BF
:101D4000002387F8323097F83230002B0AD04FF456
:101D5000E163FB6340F6B8337B637A6BFB6BD31AAA
:101D6000BB6309E04FF49663FB634FF4E1637B636D
:101D70007A6BFB6BD31ABB6397F83230002B0CD015
:101D8000524BD3F86831FB61FB691B0E7B61FB6929
:101D900003F47F031B0CFB610BE04C4BD3F8683161
:101DA000FB61FB6903F47F431B0A7B61FB69DBB2C8
:101DB000FB61474BDB6C03F040531B0FDBB23B7303
:101DC0003B7B07F1180007F1100197F83220FFF76D
:101DD000E7FD7A68FB6BD31A7969FA698A1A02FB04
:101DE00003F2BB6BB2FBF3F37B627A6AFB691344C9
:101DF0007B627A68FB6BD31A3969BA698A1A02FB6B
:101E000003F2BB6BB2FBF3F33B623A6ABB69134468
:101E10003B627A6A7B699A420BD87A6AFB699A427A
:101E200007D33A6A3B699A4203D83A6ABB699A4235
:101E300001D2002346E0BB78002B12D02449244B6A
:101E4000DB6D23F4FE4323F002037A6A12021A4385
:101E500097F83230002B01D0022300E00023134317
:101E6000CB65FB78002B2CD03B7B97F832201046BB
:101E700019460022FFF72CFD034683F00103DBB275
:101E8000002B01D000231DE03B6AFB62E723BB620D
:101E9000BA6AFB6A934228BF13463B620C490C4B5B
:101EA0005B6E23F4FF7323F001033A6A52001A4376
:101EB00097F83230002B01D0012300E000231343B8
:101EC0004B66012318464037BD4680BDB081E00F08
:101ED00000300E4080B584B000AF78600023FB6016
:101EE000314B1B6F03F00703BB602F4BDB6C03F020
:101EF0000103002B15D0BB68012B12D97B68132B73
:101F000002D80423FB600BE07B68132B05D97B68A8
:101F1000272B02D80823FB6002E01023FB602DE092
:101F20002CE0214BDB6C03F00103002B15D1BB68C7
:101F3000012B12D87B68092B02D80423FB600BE02D
:101F40007B68092B05D97B68132B02D80823FB601B
:101F500002E01023FB6011E010E0134BDB6C03F098
:101F60000103002B0AD0BB68012B07D87B68272B05
:101F700002D80823FB6001E01023FB60FB68013BF3
:101F8000FB60FB681A02FB681B031343FB600649F6
:101F9000054BDB6C23F47F42FB681343CB64FFF7F4
:101FA000EDFB1037BD4680BD00300E4080B584B0DB
:101FB00000AF0346FB710F480021FFF7BFFAF8603E
:101FC000FB68002B02D1FB79012B02D9FB68002BA7
:101FD00000D000BF0849084B1B6F23F00702FB79B4
:101FE00013430B67054B1B881846FFF773FF103729
:101FF000BD4680BD4C300E4000300E40A400002095
:1020000080B485B000AF786039607B6803F1C0634D
:10201000FB60FB683A681A601437BD465DF8047BC4
:10202000704700BF80B485B000AF786039607B68CE
:1020300003F18063FB60FB683A681A601437BD46A1
:102040005DF8047B704700BF80B582B000AF0346E7
:102050003960FB71FB79002B0DD0FB79012B0AD085
:10206000FB79022B07D0FB79032B04D0FB79042BDF
:1020700001D0FB79052BFA7913465B0013441B0151
:102080000C3303F1804303F520433A68012101FA40
:1020900002F218461146FFF7C5FF0837BD4680BD5E
:1020A00080B582B000AF03463960FB71FB79002B2D
:1020B0000DD0FB79012B0AD0FB79022B07D0FB79DD
:1020C000032B04D0FB79042B01D0FB79052BFA7983
:1020D00013465B0013441B010C3303F1804303F5EB
:1020E00020433A68012101FA02F218461146FFF72F
:1020F00087FF0837BD4680BD90B585B000AFB96099
:102100007B600346FB731346BB73FB7B002B0DD038
:10211000FB7B012B0AD0FB7B022B07D0FB7B032B25
:1021200004D0FB7B042B01D0FB7B052BBB7B002B5E
:102130000DD07B68002B05D0FB7B1846B968FFF7F4
:10214000AFFF04E0FB7B1846B968FFF77DFFBB6873
:10215000072B1CD82A4CFA7B2948F97B0B465B00DD
:102160000B441B0103445968BB689B0018460F23AE
:102170008340DB430B40B97BB86880008140194342
:1021800013465B0013441B012344596024E01C4C9C
:10219000FA7B1B48F97B0B465B000B441B01034495
:1021A00008331968BB6803F18043083B9B0018465D
:1021B0000F238340DB431940B87BBB6803F18043A6
:1021C000083B9B0000FA03F3194313465B001344DA
:1021D0001B01234408331960BB7B002B0DD17B68A6
:1021E000002B05D0FB7B1846B968FFF759FF04E0C8
:1021F000FB7B1846B968FFF727FF1437BD4690BD33
:1022000000A0004080B485B000AF7860194B5B69D6
:10221000DBB203F00F03DBB29B00FB73154B1B69B2
:1022200003F0C0039B09DAB2FB7B1343FB737B68AB
:10223000FA7B9A700F4B1B69DBB203F03F03DAB2F3
:102240007B685A700B4B9B69DBB223F00F03FB7367
:10225000084BDB6903F0F0031B09DAB2FB7B134385
:10226000FB737B68FA7B1A701437BD465DF8047BFC
:10227000704700BFD0FF0FE0064880470649074A75
:10228000074B9A42BEBF51F8040B42F8040BF8E723
:10229000FDF748FF892300002436000000000020DD
:1022A00084000020FEE700BF80B582B000AF00F0E0
:1022B00027F878600A4BD3F808210A4B13401B0A11
:1022C0003B603B6801337A68B2FBF3F37B60064AFC
:1022D0007B6813607B6818460837BD4680BD00BF29
:1022E00000400E4000FF01000C00002080B400AF51
:1022F000024B1846BD465DF8047B704700F049026A
:1023000080B483B000AF164BD3F8943003F00703CA
:10231000032B08D0042B02D0022B08D00BE0114B6A
:102320001B687B600BE04FF400437B6007E00E4BC3
:102330001B687B6003E00D4B1B687B6000BF084B94
:10234000D3F8003103F4F8531B0A01337A68B2FB67
:10235000F3F318460C37BD465DF8047B704700BFA9
:1023600000400E4008000020040000201000002063
:1023700080B400AF034B1B681846BD465DF8047B74
:10238000704700BF0400002080B400AF114A114B19
:10239000D3F8883043F47003C2F888300E4A0E4BED
:1023A0005B6D43F4005353650B4A0B4B1B6C23F0DE
:1023B00003031364094A094B1B6823F001031360EC
:1023C000074A074B1B6823F080531360BD465DF836
:1023D000047B704700ED00E000300E4074300E408A
:1023E00060300E4080B400AF4FF400431846BD4645
:1023F0005DF8047B704700BF80B400AF4FF47A7380
:102400001846BD465DF8047B704700BF80B400AF3E
:10241000034B1B681846BD465DF8047B704700BF40
:102420000800002003685A004CBF43F0004323F02B
:1024300000431844704700BF2DE9F04F83B099B3B3
:102440004B1E1746054601939846002606EB0804E6
:1024500004EBD47464104FEAC40A05EB0A0B584627
:10246000FFF7E0FF019B8146A3420AF108002844E0
:102470000ED0FFF7D7FFB94500F1FF3004D9B442C1
:102480000CD004F1FF38E1E7B84203D2661CDDE767
:10249000B945F4D8584603B0BDE8F08F4FF0000BB3
:1024A000584603B0BDE8F08F8B46584603B0BDE8F0
:1024B000F08F00BF012807D0022807D0044B002866
:1024C0000CBF18460020704702487047024870470A
:1024D000C12B0000C52B0000C92B000030B5244BD8
:1024E00083B004468D1E7BB3284601A9AFF300805C
:1024F00020B301992A46FFF79FFF0546F0B1FFF789
:1025000091FF6B68A064012B12D0002B05F1040031
:1025100020DBFFF787FF0023E06423650368002BBF
:102520001CDBFFF77FFF00232061184603B030BD9E
:10253000002323610523184603B030BD0023236127
:102540000923184603B030BD0A490B48091AC910BF
:102550000191CFE70123E0642365DFE7C3F3036064
:10256000FFF7A8FF002820610CBF09230023DCE748
:1025700000000000243600005C3500000368DA0724
:1025800010B5044606D49B0700F1480009D500F0B9
:1025900085FC2368590709D51A070ED5DB0613D524
:1025A00010BD00F073FC23685907F5D404F1D00086
:1025B00000F07CFC23681A07F0D404F5A87000F042
:1025C0007DFC2368DB06EBD404F5E870BDE8104021
:1025D00000F0B8BC03680BB1184470471846704748
:1025E00009207047704700BF70B504460D4608E0EB
:1025F0002B6C63610120236921462A4698470828ED
:1026000008D12046296CFFF769FF06460028EFD065
:1026100000F0C4FE0728FBD13046296CFFF7E2FF2B
:10262000281D00F027FC00BF2DE9F0470C1D0646D1
:1026300017460FCCADF5727D03AD0FC50FCC0FC59E
:102640000FCC0FC594E80F0002AC4FF0000ED6F887
:102650000C80D6F8189085E80F003046216CC4F83D
:1026600000E0FFF73BFF002F05460CBF09270A27B4
:102670007DB1A36B47F010018DE810020120636467
:1026800032463346C04778BB28460DF5727DBDE81B
:10269000F087236C736121464FF4F0727AA800F042
:1026A000BFFE336931467AAA38469847889B8246EE
:1026B0008DE8100239466364012032463346C04734
:1026C00090B920467AA94FF4F07200F0A9FEBAF151
:1026D000080F06D13046216CFFF700FF0927054699
:1026E000C6E7BAF1070F04D009200DF5727DBDE8E9
:1026F000F0872846216CFFF775FF03A800F0BAFBAE
:10270000406C7047F0B5CB6B0B640E1D0F46044652
:102710000FCEF9B001AD0FC50FCE0FC50FCE0FC54F
:1027200096E80F004FF0FF3685E80F00009606E0B0
:10273000236921466A4698470828054608D120465D
:102740001099FFF7CBFE0028F2D0092079B0F0BD38
:102750006846FFF713FF062DF7D120463946FFF7ED
:1027600043FF00BF30B4DD6BC160826119461D6458
:10277000002230BC58E700BF70B5C66843690B64DF
:1027800004460D4626B10122FFF74EFF00F006FE7B
:102790000369214602202A469847072807D00828BF
:1027A00003D120462946FFF71FFF00F0F7FD304612
:1027B000296CFFF717FF281D00F05CFBC2681AB1F7
:1027C000CA6B0A6400222FE79CE700BF704700BF76
:1027D000836813B1014601201847704700B50429EA
:1027E00007D8DFE801F00309060909000BB90F2A31
:1027F00005D902205DF804FB01205DF804FB00EB25
:10280000820218465368019A13605DF804FB00BF0A
:1028100000B585B00A4603AB002100930B46FFF7D5
:10282000DDFF039805B05DF804FB00BF00B5042987
:1028300007D8DFE801F00309060909000BB90F2AE0
:1028400005D902205DF804FB01205DF804FB019925
:1028500000EB82020968516018465DF804FB00BF76
:1028600010B584B004AB0C4643F8042D002100934E
:1028700022460B46FFF7DAFF04B010BDF0B5D36B6C
:102880001364151D07460E460FCDADF50F7D17AC31
:102890000FC40FCD0FC40FCD0FC495E80F004FF03C
:1028A000FF3584E80F00169510E016A8FFF7D8FF53
:1028B000314616A8B847694616AA78B9049B08207D
:1028C0009847052804460AD0092807D02699684663
:1028D000FFF704FE6A460C210028E6D0092416A85A
:1028E000FFF74CFE20460DF50F7DF0BD2DE9F04FB2
:1028F0000D46C96C8BB00C1D096807919046089471
:1029000000F003091E46002B64D10902032307913E
:102910008DF825608DF824302B6DB9F1020F08BFBA
:10292000AC6B13F0010343D100F00800C2B2039274
:1029300001932768002F3DD0022E47D02788B4F896
:1029400002A00434AB6C2AF0010B40460F219B44DB
:10295000FFF75EFF834537D827F001039B445845B6
:102960002CBF002001200AF0010A07F0010747EA06
:102970004A0ABAF1010F43D03AD3BAF1020F1FD17C
:10298000236823F000420292B9F1000F7BD138B1E5
:10299000039A002A00F08380029A002A00F0A680A1
:1029A000002B7ADB029B03F1010A04EB8A04C0E7E7
:1029B00000230193022E40DDFFF712FE002842D0D3
:1029C00009200BB0BDE8F08F0020CCE7D4F804A0BC
:1029D0000834B7E7022B9FDC0B0CDFB2090402229C
:1029E0008DF8253004EB870407918DF8242093E7B8
:1029F000B9F1000F02D0002840F0AD80043498E710
:102A0000B9F1000F26D1B0B194E80C00D70F9A1C91
:102A1000D6D005F158020133069200F09280201DB5
:102A2000FFF7D8FD3A46014606AB2846AFF30080D3
:102A3000002840F0B58008347BE7404607A900F045
:102A40001BFB0028BCD1019B002B59D108200BB0E7
:102A5000BDE8F08F40460D212F6AFFF7D9FE87426F
:102A6000E9D1AB6A9C42E6D12046FFF7DBFC0F219F
:102A700002464046FFF7F4FE40462A460021FFF793
:102A8000EFFE07209DE740460D212F6AFFF7C0FEAD
:102A9000874245D02368002B84DA043482E7029B06
:102AA00023B305F15803059604F1040A039FDDF8EA
:102AB00008B0CDF810901E4602E0D9454F4615D01B
:102AC00050460696FFF786FD0022014606AB2846D3
:102AD000AFF3008007F101090AF1040A0028ECD0E5
:102AE000029BDDF81090059E9F42D3D140460D21F8
:102AF000FFF78EFE069B2862AC626B62062060E7E1
:102B00000F214046FFF784FE0E2102464046FFF7A4
:102B1000A7FE40460F21294AFFF7A2FE072050E7F3
:102B2000AB6A9C42B6D104220027A3180299A9627D
:102B3000EF622A636B632368BB421FDB01230193AF
:102B400030E740460D21FFF763FE2862069B6B626B
:102B5000AC62062035E72046FFF764FC04340646E5
:102B6000AC632846AFF3008000283FF429AF40460D
:102B700032460F21FFF774FE072022E70846013096
:102B800004EB8000FFF74EFC0F2102464046FFF7A2
:102B900067FE404639462A46FFF762FE072010E7E7
:102BA00007460D214046FFF733FE022F2862CDD1A4
:102BB0002B46069A43F82C2F6B62C9E700000000F1
:102BC000002393E6012391E602238FE6F0B5054644
:102BD000C5B004290CD8DFE801F056030B300E0015
:102BE000012B4FEA124496B265D0052B00F0848089
:102BF000022045B0F0BD002BFAD1102AF8D82B687E
:102C0000DC0600F1EB8022AE3046019200F0A4F920
:102C1000A86B019A0023012404FA03F1114203D0A6
:102C2000016846F8231004300133042BF4D1A86363
:102C3000304600F087F90020DBE7032BD8D1140CD5
:102C400097B23B19102BD3D82B681E0700F1E680F2
:102C500022AE30467F0000F053F906EBC4027B1E23
:102C6000AC6B57B1043A214651F8040B42F8040FFB
:102C7000013B581CF8D104EB87043046AC6300F0EC
:102C80001DF90020B5E7002BB2D1AC6B97B2281D1F
:102C9000012606FA03F1394203F1010302D021684B
:102CA00001600434102B00F10400F2D112F4005042
:102CB00020D1AC639DE73219102A99D80F2C97D8F0
:102CC0002968C8074FF0000755D422A8019300F0E7
:102CD000E1F8019B19E008463746012B00F0988087
:102CE0000F2CA86302D822A800F0D8F817B102A8C8
:102CF00000F0DCF800207CE73719202F3FF678AF92
:102D00000F2C30D93746002E45D1A96B3246002E04
:102D1000E1D0002744A84FEA420C00EBC4000CF1BC
:102D2000FF328C388E465EF8046B40F8046F013A2F
:102D3000561CF8D101EB8C00002FCED0102C22466F
:102D400044A938BF102201EBC202A2F5C4720146A9
:102D50007800043A01EB800051F8046B42F8046FEC
:102D60008142F9D1B9E7102F42D92A68D007A7F1DB
:102D70001007114610D521F00102052B2A6001939E
:102D800028465BD021F0030140F8481B00F082F890
:102D9000019B002F4AD02A6851075BD4012B63D0D6
:102DA0000F2C04D822A8019300F07CF8019B002F7F
:102DB000ABD002A8019300F07DF8019BA96BC4F190
:102DC0001002002AA6DC102C224644A838BF10228C
:102DD00000EBC202A2F5C4727800BAE723F0100338
:102DE0002B6005F5E870019200F0B6F8019A0AE749
:102DF0002968C8071DD521F00102284642F00202C9
:102E000040F8482B0193002700F04CF8019BC9E7DC
:102E10000430A86322A800F039F86BE723F0080318
:102E20002B6005F5A87000F06BF811E7012B3FF45B
:102E30004CAF0F2C98BF0027B4D966E742F00202CE
:102E400040F8482B00F02EF8019B002FAAD02A68EA
:102E50005107A5D5284622F0040240F8D02B019353
:102E600000F028F8019B99E722A8019300F012F8DE
:102E7000019BA3E700F1340191E838009C46A64687
:102E80004CF8045D90E8FF0FE54600BD90EC210B87
:102E9000704700BF80EC210B704700BF90EC200B07
:102EA000704700BF80EC200B704700BFD0EC200BB8
:102EB000704700BFC0EC200B704700BFF0EC020170
:102EC000F0EC0211F0EC0221F0EC0231F0EC0241E6
:102ED000F0EC0251F0EC0261F0EC0271F0EC0281D6
:102EE000F0EC0291F0EC02A1F0EC02B1F0EC02C1C6
:102EF000F0EC02D1F0EC02E1F0EC02F1704700BF1F
:102F0000E0EC0201E0EC0211E0EC0221E0EC023125
:102F1000E0EC0241E0EC0251E0EC0261E0EC027115
:102F2000E0EC0281E0EC0291E0EC02A1E0EC02B105
:102F3000E0EC02C1E0EC02D1E0EC02E1E0EC02F1F5
:102F4000704700BFB0FC0181B0FC0191B0FC01A151
:102F5000B0FC01B1704700BFA0FC0181A0FC019151
:102F6000A0FC01A1A0FC01B1704700BFEC4600B578
:102F70002DE900502DE9FF1F4FF000032DE90C0053
:102F800001A9FFF7BFFBDDF840E012B0704700BFBA
:102F9000EC4600B52DE900502DE9FF1F4FF000036E
:102FA0002DE90C0001A9FFF7E7FBDDF840E012B0C6
:102FB000704700BFEC4600B52DE900502DE9FF1F1A
:102FC0004FF000032DE90C0001A9FFF7F7FBDDF836
:102FD00040E012B0704700BFEC4600B52DE900504C
:102FE0002DE9FF1F4FF000032DE90C0001ABFFF7A7
:102FF000B9FBDDF840E012B0704700BFEC4600B509
:103000002DE900502DE9FF1F4FF000032DE90C00C2
:1030100001AAFFF733FCDDF840E012B0704700BFB3
:10302000037A1BB9437A43B9B02070475A1E03682C
:1030300002721A020260180E70474268013B10B417
:10304000437213680321141D01721A024460026066
:103050005DF8044B180E704700B585B003AB002136
:1030600000930C220B46FFF7B9FB039805B05DF8FF
:1030700004FB00BFF0E700BF2DE9F043064685B032
:103080000D464FF000082846FFF7CAFFB028044657
:1030900000F0B58020F07F0111F0FF0120D000F09A
:1030A000F003802B7AD0902B36D0A02B49D0B02BB8
:1030B0005CD0C02B00F0898000F0F803D02B0BD13E
:1030C00000F00702013242F40022304601210523BC
:1030D000FFF77CFD0028D6D0092005B0BDE8F083BD
:1030E0000DF10C090B468700CDF8009030460D22FB
:1030F000FFF774FBFFB2039BCDF800900437600626
:103100004FF000014CBFDF1BFF1830460B460D226D
:103110000397FFF78BFBB6E700F00D030D2BDBD019
:1031200003AF002100F00F020B4600973046FFF777
:1031300055FB002100970B4630460D22FFF776FB2A
:10314000A1E7C34303F007034FF47F621A4101076D
:1031500002F47F624FF0000148BF42F480420B4608
:103160003046FFF733FD0028B6D18CE7B1284CD0AC
:10317000B2285DD0B32800F08A8000F0FC03B42BA5
:10318000AAD000F007020132012142F400220B46CE
:103190003046FFF71BFD00289ED174E72846FFF755
:1031A0003FFF24022043B0F5004F95D004010021D9
:1031B000A2B20B463046FFF709FD00288CD114F46B
:1031C000004F18BF4FF001085DE7C62872D0C7282E
:1031D0007AD000F0F803C02B00F08980C82800F0F6
:1031E000A580C9287FF478AF2846FFF719FF00F0C3
:1031F0000F02013200F0F00042EA003265E7B8F158
:10320000000F00F08280002067E72846FFF708FFE4
:10321000024600283FF460AF10F0F0017FF45CAF8D
:1032200030460B46FFF7D2FC00287FF455AF2AE763
:1032300000210DF10C090D220B46CDF8009030460F
:10324000FFF7CCFA2846FFF7EBFE02064FF0020428
:103250000CD5039B00F07F00A04003442846039355
:10326000FFF7DEFE030604F10704F2D4039BCDF85A
:10327000009000F07F00A04003F5017300211C18AE
:103280000D220B4630460394FFF7D0FAFBE62846A2
:10329000FFF7C6FE00F00F02013200F0F00001213E
:1032A00042EA00320B463046FFF790FC00287FF4DC
:1032B00013AFE8E62846FFF7B3FE00F00F02013235
:1032C00000F0F0000321EBE72846FFF7A9FE0246D5
:1032D00000283FF401AF10F0F0037FF4FDAE30465C
:1032E0000421FFF773FC00287FF4F6AECBE600F074
:1032F0000F020132032142F420220B463046FFF731
:1033000065FC00287FF4E8AEBDE603AC41460E2222
:10331000434600943046FFF761FA00943046414638
:103320000F224346FFF782FA4046D6E62846FFF7CB
:1033300077FE00F0F00200F00F031032013343EA91
:103340000232C2E610B5C36C84B05A6803208DF80F
:103350000C00DC798DF80D4012020833084601A9F3
:1033600001920293FFF788FE04B010BD08B5FFF785
:1033700081FE806C08BD00BF08B5FFF77BFEC36C03
:10338000D87903EB8000083008BD00BF08B500F015
:1033900005F800BF08B500F001F800BF08B5062029
:1033A00000F07AF8012000F0A3F8000008B5074B00
:1033B000044613B10021AFF30080054B1868836AFF
:1033C00003B19847204600F093F800BF00000000CA
:1033D0003035000070B50E4B0E4CE41AA4100025D9
:1033E0001E46A54204D056F8253098470135F8E727
:1033F00000F080F8084C094BE41AA41000251E4682
:10340000A54204D056F8253098470135F8E770BD3D
:1034100078000020780000207C0000207800002048
:1034200010B5431E0A44914204D011F8014B03F831
:10343000014FF8E710BD02440346934202D003F85F
:10344000011BFAE770471F2938B504460D4604D919
:10345000162303604FF0FF3038BD426C12B152F8B2
:1034600021304BB9204600F031F82A46014620466B
:10347000BDE8384000F018B8012B0AD0591C03D120
:1034800016230360012038BD002442F82540284659
:103490009847002038BD0000024B01461868FFF72E
:1034A000D2BF00BF7400002038B5074C002305468A
:1034B00008461146236000F013F8431C02D123682C
:1034C00003B12B6038BD00BFA800002000F000B899
:1034D000024B58221A604FF0FF307047A8000020BE
:1034E000024B58221A604FF0FF307047A8000020AE
:1034F000FEE700BFF8B500BFF8BC08BC9E467047A9
:10350000F8B500BFF8BC08BC9E467047000108072C
:103510000F000A00C8002000A0000000000000000A
:10352000A00055010A200706020A04070000430014
:0835300014000020000000005F
:1035380001970181B0B008840000000008B1018142
:10354800B0B000840000000008B10181B0B0008470
:04355800000000006F
:10355C00C8CBFF7F01000000FCCFFF7FD0FFFF7FB7
:10356C0038D0FF7F0100000068EFFF7FB0A9028018
:10357C0000F0FF7FB0B0A88050F0FF7F010000008A
:10358C005CF0FF7FB0B0AA8094F0FF7FAE71B28088
:10359C0064F1FF7F0100000060F1FF7FAB3F3880DA
:1035AC00B8F1FF7F01000000C4F1FF7FB0B0AA802A
:1035BC0000F2FF7F01000000B8F2FF7FAB0EB2807B
:1035CC0020F3FF7FB0AF0A80ECF5FF7F0100000015
:1035DC00F0F5FF7FAB3F048090F8FF7F0100000007
:1035EC006CFAFF7F0084048080FAFF7F01000000EA
:1035FC007CFAFF7FB0AD048040FDFF7FB0A8038054
:10360C0060FDFF7F34FFFF7F64FDFF7F38FFFF7F8E
:08361C0070FDFF7F01000000BA
:10362400C0EA210100F0490200800000C0EA210143
:10363400C0EA2101000000000000000000000000BA
:103644000000000000000000000000000000000076
:10365400000000002E350000000000000000000003
:103664000000000000000000000000000000000056
:103674000000000000000000000000000000000046
:103684000000000000000000000000000000000036
:103694000000000014000020ED000000C90000003C
:0436A4000000000022
:04000003000022795E
:00000001FF
